{
  "_format": "hh-sol-artifact-1",
  "contractName": "AMM",
  "sourceName": "contracts/Amm.sol",
  "abi": [
    {
      "inputs": [],
      "name": "K",
      "outputs": [
        {
          "internalType": "uint256",
          "name": "",
          "type": "uint256"
        }
      ],
      "stateMutability": "view",
      "type": "function"
    },
    {
      "inputs": [],
      "name": "PRECISION",
      "outputs": [
        {
          "internalType": "uint256",
          "name": "",
          "type": "uint256"
        }
      ],
      "stateMutability": "view",
      "type": "function"
    },
    {
      "inputs": [
        {
          "internalType": "address",
          "name": "",
          "type": "address"
        }
      ],
      "name": "accountBalance1",
      "outputs": [
        {
          "internalType": "uint256",
          "name": "",
          "type": "uint256"
        }
      ],
      "stateMutability": "view",
      "type": "function"
    },
    {
      "inputs": [
        {
          "internalType": "address",
          "name": "",
          "type": "address"
        }
      ],
      "name": "accountBalance2",
      "outputs": [
        {
          "internalType": "uint256",
          "name": "",
          "type": "uint256"
        }
      ],
      "stateMutability": "view",
      "type": "function"
    },
    {
      "inputs": [
        {
          "internalType": "uint256",
          "name": "_addToken1",
          "type": "uint256"
        },
        {
          "internalType": "uint256",
          "name": "_addToken2",
          "type": "uint256"
        }
      ],
      "name": "addToken",
      "outputs": [],
      "stateMutability": "nonpayable",
      "type": "function"
    },
    {
      "inputs": [
        {
          "internalType": "uint256",
          "name": "_amountToken1",
          "type": "uint256"
        }
      ],
      "name": "getSwapEstimateAmount",
      "outputs": [
        {
          "internalType": "uint256",
          "name": "amountToken2",
          "type": "uint256"
        }
      ],
      "stateMutability": "view",
      "type": "function"
    },
    {
      "inputs": [
        {
          "internalType": "uint256",
          "name": "_amount1",
          "type": "uint256"
        },
        {
          "internalType": "uint256",
          "name": "_amount2",
          "type": "uint256"
        }
      ],
      "name": "pool",
      "outputs": [
        {
          "internalType": "uint256",
          "name": "share",
          "type": "uint256"
        }
      ],
      "stateMutability": "nonpayable",
      "type": "function"
    },
    {
      "inputs": [
        {
          "internalType": "address",
          "name": "",
          "type": "address"
        }
      ],
      "name": "shares",
      "outputs": [
        {
          "internalType": "uint256",
          "name": "",
          "type": "uint256"
        }
      ],
      "stateMutability": "view",
      "type": "function"
    },
    {
      "inputs": [],
      "name": "showBalance",
      "outputs": [
        {
          "internalType": "uint256",
          "name": "",
          "type": "uint256"
        },
        {
          "internalType": "uint256",
          "name": "",
          "type": "uint256"
        },
        {
          "internalType": "uint256",
          "name": "",
          "type": "uint256"
        }
      ],
      "stateMutability": "view",
      "type": "function"
    },
    {
      "inputs": [
        {
          "internalType": "uint256",
          "name": "_amountToken1",
          "type": "uint256"
        }
      ],
      "name": "swapToken1",
      "outputs": [
        {
          "internalType": "uint256",
          "name": "amountToken2",
          "type": "uint256"
        }
      ],
      "stateMutability": "nonpayable",
      "type": "function"
    },
    {
      "inputs": [],
      "name": "totalShares",
      "outputs": [
        {
          "internalType": "uint256",
          "name": "",
          "type": "uint256"
        }
      ],
      "stateMutability": "view",
      "type": "function"
    },
    {
      "inputs": [],
      "name": "totalToken1",
      "outputs": [
        {
          "internalType": "uint256",
          "name": "",
          "type": "uint256"
        }
      ],
      "stateMutability": "view",
      "type": "function"
    },
    {
      "inputs": [],
      "name": "totalToken2",
      "outputs": [
        {
          "internalType": "uint256",
          "name": "",
          "type": "uint256"
        }
      ],
      "stateMutability": "view",
      "type": "function"
    }
  ],
  "bytecode": "0x608060405234801561001057600080fd5b50611292806100206000396000f3fe608060405234801561001057600080fd5b50600436106100cf5760003560e01c80639b1b615e1161008c578063ce7c2ac211610066578063ce7c2ac214610206578063e288d18314610236578063f4cb34d414610266578063fc9211b314610296576100cf565b80639b1b615e1461019a578063a932492f146101ca578063aaf5eb68146101e8576100cf565b806317b9ebec146100d45780633a98ef39146100f05780634832cee11461010e57806380abfda81461012c57806381b2d07b1461014a5780638d796a371461016a575b600080fd5b6100ee60048036038101906100e99190610cb3565b6102c6565b005b6100f8610443565b6040516101059190610ed3565b60405180910390f35b610116610449565b6040516101239190610ed3565b60405180910390f35b61013461044f565b6040516101419190610ed3565b60405180910390f35b610152610455565b60405161016193929190610eee565b60405180910390f35b610184600480360381019061017f9190610c61565b610525565b6040516101919190610ed3565b60405180910390f35b6101b460048036038101906101af9190610cb3565b61053d565b6040516101c19190610ed3565b60405180910390f35b6101d26108fb565b6040516101df9190610ed3565b60405180910390f35b6101f0610901565b6040516101fd9190610ed3565b60405180910390f35b610220600480360381019061021b9190610c61565b610908565b60405161022d9190610ed3565b60405180910390f35b610250600480360381019061024b9190610c61565b610920565b60405161025d9190610ed3565b60405180910390f35b610280600480360381019061027b9190610c8a565b610938565b60405161028d9190610ed3565b60405180910390f35b6102b060048036038101906102ab9190610c8a565b610b30565b6040516102bd9190610ed3565b60405180910390f35b6000821180156102d65750600081115b610315576040517f08c379a000000000000000000000000000000000000000000000000000000000815260040161030c90610eb3565b60405180910390fd5b61036782600460003373ffffffffffffffffffffffffffffffffffffffff1673ffffffffffffffffffffffffffffffffffffffff16815260200190815260200160002054610bdf90919063ffffffff16565b600460003373ffffffffffffffffffffffffffffffffffffffff1673ffffffffffffffffffffffffffffffffffffffff168152602001908152602001600020819055506103fc81600560003373ffffffffffffffffffffffffffffffffffffffff1673ffffffffffffffffffffffffffffffffffffffff16815260200190815260200160002054610bdf90919063ffffffff16565b600560003373ffffffffffffffffffffffffffffffffffffffff1673ffffffffffffffffffffffffffffffffffffffff168152602001908152602001600020819055505050565b60025481565b60015481565b60005481565b6000806000600460003373ffffffffffffffffffffffffffffffffffffffff1673ffffffffffffffffffffffffffffffffffffffff16815260200190815260200160002054600560003373ffffffffffffffffffffffffffffffffffffffff1673ffffffffffffffffffffffffffffffffffffffff16815260200190815260200160002054600660003373ffffffffffffffffffffffffffffffffffffffff1673ffffffffffffffffffffffffffffffffffffffff16815260200190815260200160002054925092509250909192565b60056020528060005260406000206000915090505481565b6000808311610581576040517f08c379a000000000000000000000000000000000000000000000000000000000815260040161057890610e33565b60405180910390fd5b600082116105c4576040517f08c379a00000000000000000000000000000000000000000000000000000000081526004016105bb90610e93565b60405180910390fd5b82600460003373ffffffffffffffffffffffffffffffffffffffff1673ffffffffffffffffffffffffffffffffffffffff168152602001908152602001600020541015610646576040517f08c379a000000000000000000000000000000000000000000000000000000000815260040161063d90610e73565b60405180910390fd5b82600560003373ffffffffffffffffffffffffffffffffffffffff1673ffffffffffffffffffffffffffffffffffffffff1681526020019081526020016000205410156106c8576040517f08c379a00000000000000000000000000000000000000000000000000000000081526004016106bf90610e73565b60405180910390fd5b600060025414156106ea57620f424060646106e39190610fbd565b905061078c565b600061071560005461070786600254610bf590919063ffffffff16565b610c0b90919063ffffffff16565b9050600061074260015461073486600254610bf590919063ffffffff16565b610c0b90919063ffffffff16565b9050808214610786576040517f08c379a000000000000000000000000000000000000000000000000000000000815260040161077d90610e53565b60405180910390fd5b81925050505b82600460003373ffffffffffffffffffffffffffffffffffffffff1673ffffffffffffffffffffffffffffffffffffffff16815260200190815260200160002060008282546107db9190611017565b9250508190555081600560003373ffffffffffffffffffffffffffffffffffffffff1673ffffffffffffffffffffffffffffffffffffffff16815260200190815260200160002060008282546108319190611017565b92505081905550826000808282546108499190610f36565b9250508190555081600160008282546108629190610f36565b92505081905550610880600154600054610bf590919063ffffffff16565b60038190555080600260008282546108989190610f36565b9250508190555080600660003373ffffffffffffffffffffffffffffffffffffffff1673ffffffffffffffffffffffffffffffffffffffff16815260200190815260200160002060008282546108ee9190610f36565b9250508190555092915050565b60035481565b620f424081565b60066020528060005260406000206000915090505481565b60046020528060005260406000206000915090505481565b6000806002541161097e576040517f08c379a000000000000000000000000000000000000000000000000000000000815260040161097590610e13565b60405180910390fd5b81600460003373ffffffffffffffffffffffffffffffffffffffff1673ffffffffffffffffffffffffffffffffffffffff168152602001908152602001600020541015610a00576040517f08c379a00000000000000000000000000000000000000000000000000000000081526004016109f790610e73565b60405180910390fd5b60008211610a43576040517f08c379a0000000000000000000000000000000000000000000000000000000008152600401610a3a90610df3565b60405180910390fd5b610a4c82610b30565b90508060016000828254610a609190611017565b9250508190555081600080828254610a789190610f36565b9250508190555081600460003373ffffffffffffffffffffffffffffffffffffffff1673ffffffffffffffffffffffffffffffffffffffff1681526020019081526020016000206000828254610ace9190611017565b9250508190555080600560003373ffffffffffffffffffffffffffffffffffffffff1673ffffffffffffffffffffffffffffffffffffffff1681526020019081526020016000206000828254610b249190610f36565b92505081905550919050565b60008060025411610b76576040517f08c379a0000000000000000000000000000000000000000000000000000000008152600401610b6d90610e13565b60405180910390fd5b6000610b8d83600054610bdf90919063ffffffff16565b90506000610ba682600354610c0b90919063ffffffff16565b9050610bbd81600154610c2190919063ffffffff16565b9250600154831415610bd8578280610bd490611087565b9350505b5050919050565b60008183610bed9190610f36565b905092915050565b60008183610c039190610fbd565b905092915050565b60008183610c199190610f8c565b905092915050565b60008183610c2f9190611017565b905092915050565b600081359050610c468161122e565b92915050565b600081359050610c5b81611245565b92915050565b600060208284031215610c7357600080fd5b6000610c8184828501610c37565b91505092915050565b600060208284031215610c9c57600080fd5b6000610caa84828501610c4c565b91505092915050565b60008060408385031215610cc657600080fd5b6000610cd485828601610c4c565b9250506020610ce585828601610c4c565b9150509250929050565b6000610cfc601683610f25565b9150610d078261110f565b602082019050919050565b6000610d1f601883610f25565b9150610d2a82611138565b602082019050919050565b6000610d42601583610f25565b9150610d4d82611161565b602082019050919050565b6000610d65601483610f25565b9150610d708261118a565b602082019050919050565b6000610d88601383610f25565b9150610d93826111b3565b602082019050919050565b6000610dab601683610f25565b9150610db6826111dc565b602082019050919050565b6000610dce601483610f25565b9150610dd982611205565b602082019050919050565b610ded8161107d565b82525050565b60006020820190508181036000830152610e0c81610cef565b9050919050565b60006020820190508181036000830152610e2c81610d12565b9050919050565b60006020820190508181036000830152610e4c81610d35565b9050919050565b60006020820190508181036000830152610e6c81610d58565b9050919050565b60006020820190508181036000830152610e8c81610d7b565b9050919050565b60006020820190508181036000830152610eac81610d9e565b9050919050565b60006020820190508181036000830152610ecc81610dc1565b9050919050565b6000602082019050610ee86000830184610de4565b92915050565b6000606082019050610f036000830186610de4565b610f106020830185610de4565b610f1d6040830184610de4565b949350505050565b600082825260208201905092915050565b6000610f418261107d565b9150610f4c8361107d565b9250827fffffffffffffffffffffffffffffffffffffffffffffffffffffffffffffffff03821115610f8157610f806110b1565b5b828201905092915050565b6000610f978261107d565b9150610fa28361107d565b925082610fb257610fb16110e0565b5b828204905092915050565b6000610fc88261107d565b9150610fd38361107d565b9250817fffffffffffffffffffffffffffffffffffffffffffffffffffffffffffffffff048311821515161561100c5761100b6110b1565b5b828202905092915050565b60006110228261107d565b915061102d8361107d565b9250828210156110405761103f6110b1565b5b828203905092915050565b60006110568261105d565b9050919050565b600073ffffffffffffffffffffffffffffffffffffffff82169050919050565b6000819050919050565b60006110928261107d565b915060008214156110a6576110a56110b1565b5b600182039050919050565b7f4e487b7100000000000000000000000000000000000000000000000000000000600052601160045260246000fd5b7f4e487b7100000000000000000000000000000000000000000000000000000000600052601260045260246000fd5b7f416d6f756e742063616e206e6f74206265207a65726f00000000000000000000600082015250565b7f4c69717569646974792067726561746572207468656e20300000000000000000600082015250565b7f416d6f756e742063616e6e6f74206265207a65726f0000000000000000000000600082015250565b7f4e6f204571756976616c656e742076616c756573000000000000000000000000600082015250565b7f496e73756666696369656e7420616d6f756e7400000000000000000000000000600082015250565b7f416d6f756e742063616e6e6f74206265207a65726f2100000000000000000000600082015250565b7f546f6b656e2063616e6e6f74206265207a65726f000000000000000000000000600082015250565b6112378161104b565b811461124257600080fd5b50565b61124e8161107d565b811461125957600080fd5b5056fea26469706673582212207344aea8080c952346a953d8b9756302463847d43ac124c43ce104c36fafb3ca64736f6c63430008040033",
  "linkReferences": {},
  "deployedLinkReferences": {}
}